{
  "_format": "hh-sol-artifact-1",
  "contractName": "NFTMarketplace",
  "sourceName": "contracts/NFTMarketplace.sol",
  "abi": [
    {
      "inputs": [],
      "stateMutability": "nonpayable",
      "type": "constructor"
    },
    {
      "anonymous": false,
      "inputs": [
        {
          "indexed": true,
          "internalType": "address",
          "name": "owner",
          "type": "address"
        },
        {
          "indexed": true,
          "internalType": "address",
          "name": "approved",
          "type": "address"
        },
        {
          "indexed": true,
          "internalType": "uint256",
          "name": "tokenId",
          "type": "uint256"
        }
      ],
      "name": "Approval",
      "type": "event"
    },
    {
      "anonymous": false,
      "inputs": [
        {
          "indexed": true,
          "internalType": "address",
          "name": "owner",
          "type": "address"
        },
        {
          "indexed": true,
          "internalType": "address",
          "name": "operator",
          "type": "address"
        },
        {
          "indexed": false,
          "internalType": "bool",
          "name": "approved",
          "type": "bool"
        }
      ],
      "name": "ApprovalForAll",
      "type": "event"
    },
    {
      "anonymous": false,
      "inputs": [
        {
          "indexed": true,
          "internalType": "address",
          "name": "from",
          "type": "address"
        },
        {
          "indexed": true,
          "internalType": "address",
          "name": "to",
          "type": "address"
        },
        {
          "indexed": true,
          "internalType": "uint256",
          "name": "tokenId",
          "type": "uint256"
        }
      ],
      "name": "Transfer",
      "type": "event"
    },
    {
      "anonymous": false,
      "inputs": [
        {
          "indexed": true,
          "internalType": "uint256",
          "name": "tokenId",
          "type": "uint256"
        },
        {
          "indexed": false,
          "internalType": "address",
          "name": "seller",
          "type": "address"
        },
        {
          "indexed": false,
          "internalType": "address",
          "name": "owner",
          "type": "address"
        },
        {
          "indexed": false,
          "internalType": "uint256",
          "name": "price",
          "type": "uint256"
        },
        {
          "indexed": false,
          "internalType": "bool",
          "name": "sold",
          "type": "bool"
        }
      ],
      "name": "idMarketItemCreated",
      "type": "event"
    },
    {
      "inputs": [
        {
          "internalType": "address",
          "name": "to",
          "type": "address"
        },
        {
          "internalType": "uint256",
          "name": "tokenId",
          "type": "uint256"
        }
      ],
      "name": "approve",
      "outputs": [],
      "stateMutability": "nonpayable",
      "type": "function"
    },
    {
      "inputs": [
        {
          "internalType": "address",
          "name": "owner",
          "type": "address"
        }
      ],
      "name": "balanceOf",
      "outputs": [
        {
          "internalType": "uint256",
          "name": "",
          "type": "uint256"
        }
      ],
      "stateMutability": "view",
      "type": "function"
    },
    {
      "inputs": [
        {
          "internalType": "uint256",
          "name": "tokenId",
          "type": "uint256"
        }
      ],
      "name": "createMarketSale",
      "outputs": [],
      "stateMutability": "payable",
      "type": "function"
    },
    {
      "inputs": [
        {
          "internalType": "string",
          "name": "tokenURI",
          "type": "string"
        },
        {
          "internalType": "uint256",
          "name": "price",
          "type": "uint256"
        }
      ],
      "name": "createToken",
      "outputs": [
        {
          "internalType": "uint256",
          "name": "",
          "type": "uint256"
        }
      ],
      "stateMutability": "payable",
      "type": "function"
    },
    {
      "inputs": [],
      "name": "fetchItemsListed",
      "outputs": [
        {
          "components": [
            {
              "internalType": "uint256",
              "name": "tokenId",
              "type": "uint256"
            },
            {
              "internalType": "address payable",
              "name": "seller",
              "type": "address"
            },
            {
              "internalType": "address payable",
              "name": "owner",
              "type": "address"
            },
            {
              "internalType": "uint256",
              "name": "price",
              "type": "uint256"
            },
            {
              "internalType": "bool",
              "name": "sold",
              "type": "bool"
            }
          ],
          "internalType": "struct NFTMarketplace.MarketItem[]",
          "name": "",
          "type": "tuple[]"
        }
      ],
      "stateMutability": "view",
      "type": "function"
    },
    {
      "inputs": [],
      "name": "fetchMarketItem",
      "outputs": [
        {
          "components": [
            {
              "internalType": "uint256",
              "name": "tokenId",
              "type": "uint256"
            },
            {
              "internalType": "address payable",
              "name": "seller",
              "type": "address"
            },
            {
              "internalType": "address payable",
              "name": "owner",
              "type": "address"
            },
            {
              "internalType": "uint256",
              "name": "price",
              "type": "uint256"
            },
            {
              "internalType": "bool",
              "name": "sold",
              "type": "bool"
            }
          ],
          "internalType": "struct NFTMarketplace.MarketItem[]",
          "name": "",
          "type": "tuple[]"
        }
      ],
      "stateMutability": "view",
      "type": "function"
    },
    {
      "inputs": [],
      "name": "fetchMyNFT",
      "outputs": [
        {
          "components": [
            {
              "internalType": "uint256",
              "name": "tokenId",
              "type": "uint256"
            },
            {
              "internalType": "address payable",
              "name": "seller",
              "type": "address"
            },
            {
              "internalType": "address payable",
              "name": "owner",
              "type": "address"
            },
            {
              "internalType": "uint256",
              "name": "price",
              "type": "uint256"
            },
            {
              "internalType": "bool",
              "name": "sold",
              "type": "bool"
            }
          ],
          "internalType": "struct NFTMarketplace.MarketItem[]",
          "name": "",
          "type": "tuple[]"
        }
      ],
      "stateMutability": "view",
      "type": "function"
    },
    {
      "inputs": [
        {
          "internalType": "uint256",
          "name": "tokenId",
          "type": "uint256"
        }
      ],
      "name": "getApproved",
      "outputs": [
        {
          "internalType": "address",
          "name": "",
          "type": "address"
        }
      ],
      "stateMutability": "view",
      "type": "function"
    },
    {
      "inputs": [],
      "name": "getListingPrice",
      "outputs": [
        {
          "internalType": "uint256",
          "name": "",
          "type": "uint256"
        }
      ],
      "stateMutability": "view",
      "type": "function"
    },
    {
      "inputs": [
        {
          "internalType": "address",
          "name": "owner",
          "type": "address"
        },
        {
          "internalType": "address",
          "name": "operator",
          "type": "address"
        }
      ],
      "name": "isApprovedForAll",
      "outputs": [
        {
          "internalType": "bool",
          "name": "",
          "type": "bool"
        }
      ],
      "stateMutability": "view",
      "type": "function"
    },
    {
      "inputs": [],
      "name": "name",
      "outputs": [
        {
          "internalType": "string",
          "name": "",
          "type": "string"
        }
      ],
      "stateMutability": "view",
      "type": "function"
    },
    {
      "inputs": [
        {
          "internalType": "uint256",
          "name": "tokenId",
          "type": "uint256"
        }
      ],
      "name": "ownerOf",
      "outputs": [
        {
          "internalType": "address",
          "name": "",
          "type": "address"
        }
      ],
      "stateMutability": "view",
      "type": "function"
    },
    {
      "inputs": [
        {
          "internalType": "uint256",
          "name": "tokenId",
          "type": "uint256"
        },
        {
          "internalType": "uint256",
          "name": "price",
          "type": "uint256"
        }
      ],
      "name": "reSallToken",
      "outputs": [],
      "stateMutability": "payable",
      "type": "function"
    },
    {
      "inputs": [
        {
          "internalType": "address",
          "name": "from",
          "type": "address"
        },
        {
          "internalType": "address",
          "name": "to",
          "type": "address"
        },
        {
          "internalType": "uint256",
          "name": "tokenId",
          "type": "uint256"
        }
      ],
      "name": "safeTransferFrom",
      "outputs": [],
      "stateMutability": "nonpayable",
      "type": "function"
    },
    {
      "inputs": [
        {
          "internalType": "address",
          "name": "from",
          "type": "address"
        },
        {
          "internalType": "address",
          "name": "to",
          "type": "address"
        },
        {
          "internalType": "uint256",
          "name": "tokenId",
          "type": "uint256"
        },
        {
          "internalType": "bytes",
          "name": "data",
          "type": "bytes"
        }
      ],
      "name": "safeTransferFrom",
      "outputs": [],
      "stateMutability": "nonpayable",
      "type": "function"
    },
    {
      "inputs": [
        {
          "internalType": "address",
          "name": "operator",
          "type": "address"
        },
        {
          "internalType": "bool",
          "name": "approved",
          "type": "bool"
        }
      ],
      "name": "setApprovalForAll",
      "outputs": [],
      "stateMutability": "nonpayable",
      "type": "function"
    },
    {
      "inputs": [
        {
          "internalType": "bytes4",
          "name": "interfaceId",
          "type": "bytes4"
        }
      ],
      "name": "supportsInterface",
      "outputs": [
        {
          "internalType": "bool",
          "name": "",
          "type": "bool"
        }
      ],
      "stateMutability": "view",
      "type": "function"
    },
    {
      "inputs": [],
      "name": "symbol",
      "outputs": [
        {
          "internalType": "string",
          "name": "",
          "type": "string"
        }
      ],
      "stateMutability": "view",
      "type": "function"
    },
    {
      "inputs": [
        {
          "internalType": "uint256",
          "name": "tokenId",
          "type": "uint256"
        }
      ],
      "name": "tokenURI",
      "outputs": [
        {
          "internalType": "string",
          "name": "",
          "type": "string"
        }
      ],
      "stateMutability": "view",
      "type": "function"
    },
    {
      "inputs": [
        {
          "internalType": "address",
          "name": "from",
          "type": "address"
        },
        {
          "internalType": "address",
          "name": "to",
          "type": "address"
        },
        {
          "internalType": "uint256",
          "name": "tokenId",
          "type": "uint256"
        }
      ],
      "name": "transferFrom",
      "outputs": [],
      "stateMutability": "nonpayable",
      "type": "function"
    },
    {
      "inputs": [
        {
          "internalType": "uint256",
          "name": "_listingPrice",
          "type": "uint256"
        }
      ],
      "name": "updateListingPrice",
      "outputs": [],
      "stateMutability": "payable",
      "type": "function"
    }
  ],
  "bytecode": "0x60806040526608e1bc9bf040006009553480156200001c57600080fd5b506040518060400160405280601381526020017f4e4654204d657461766172736520546f6b656e000000000000000000000000008152506040518060400160405280600581526020017f4d594e465400000000000000000000000000000000000000000000000000000081525081600090816200009a919062000355565b508060019081620000ac919062000355565b5050503373ffffffffffffffffffffffffffffffffffffffff16600a60009054906101000a905050506200043c565b600081519050919050565b7f4e487b7100000000000000000000000000000000000000000000000000000000600052604160045260246000fd5b7f4e487b7100000000000000000000000000000000000000000000000000000000600052602260045260246000fd5b600060028204905060018216806200015d57607f821691505b60208210810362000173576200017262000115565b5b50919050565b60008190508160005260206000209050919050565b60006020601f8301049050919050565b600082821b905092915050565b600060088302620001dd7fffffffffffffffffffffffffffffffffffffffffffffffffffffffffffffffff826200019e565b620001e986836200019e565b95508019841693508086168417925050509392505050565b6000819050919050565b6000819050919050565b600062000236620002306200022a8462000201565b6200020b565b62000201565b9050919050565b6000819050919050565b620002528362000215565b6200026a62000261826200023d565b848454620001ab565b825550505050565b600090565b6200028162000272565b6200028e81848462000247565b505050565b5b81811015620002b657620002aa60008262000277565b60018101905062000294565b5050565b601f8211156200030557620002cf8162000179565b620002da846200018e565b81016020851015620002ea578190505b62000302620002f9856200018e565b83018262000293565b50505b505050565b600082821c905092915050565b60006200032a600019846008026200030a565b1980831691505092915050565b600062000345838362000317565b9150826002028217905092915050565b6200036082620000db565b67ffffffffffffffff8111156200037c576200037b620000e6565b5b62000388825462000144565b62000395828285620002ba565b600060209050601f831160018114620003cd5760008415620003b8578287015190505b620003c4858262000337565b86555062000434565b601f198416620003dd8662000179565b60005b828110156200040757848901518255600182019150602085019450602081019050620003e0565b8683101562000427578489015162000423601f89168262000317565b8355505b6001600288020188555050505b505050505050565b6143e2806200044c6000396000f3fe60806040526004361061012a5760003560e01c806372b3b620116100ab578063ae677aa31161006f578063ae677aa3146103ea578063b88d4fde14610406578063be9af5361461042f578063c18763f71461044b578063c87b56dd14610476578063e985e9c5146104b35761012a565b806372b3b6201461031f578063898ad8cd1461034f5780638fafd0211461036b57806395d89b4114610396578063a22cb465146103c15761012a565b806323b872dd116100f257806323b872dd1461022857806342842e0e1461025157806345f8fa801461027a5780636352211e146102a557806370a08231146102e25761012a565b806301ffc9a71461012f57806306fdde031461016c578063081812fc14610197578063095ea7b3146101d457806312e85585146101fd575b600080fd5b34801561013b57600080fd5b5061015660048036038101906101519190612c14565b6104f0565b6040516101639190612c5c565b60405180910390f35b34801561017857600080fd5b506101816105d2565b60405161018e9190612d07565b60405180910390f35b3480156101a357600080fd5b506101be60048036038101906101b99190612d5f565b610664565b6040516101cb9190612dcd565b60405180910390f35b3480156101e057600080fd5b506101fb60048036038101906101f69190612e14565b6106aa565b005b34801561020957600080fd5b506102126107c1565b60405161021f9190612e63565b60405180910390f35b34801561023457600080fd5b5061024f600480360381019061024a9190612e7e565b6107cb565b005b34801561025d57600080fd5b5061027860048036038101906102739190612e7e565b61082b565b005b34801561028657600080fd5b5061028f61084b565b60405161029c9190613027565b60405180910390f35b3480156102b157600080fd5b506102cc60048036038101906102c79190612d5f565b610b34565b6040516102d99190612dcd565b60405180910390f35b3480156102ee57600080fd5b5061030960048036038101906103049190613049565b610bba565b6040516103169190612e63565b60405180910390f35b610339600480360381019061033491906131ab565b610c71565b6040516103469190612e63565b60405180910390f35b61036960048036038101906103649190613207565b610cb3565b005b34801561037757600080fd5b50610380610ea8565b60405161038d9190613027565b60405180910390f35b3480156103a257600080fd5b506103ab611110565b6040516103b89190612d07565b60405180910390f35b3480156103cd57600080fd5b506103e860048036038101906103e39190613273565b6111a2565b005b61040460048036038101906103ff9190612d5f565b6111b8565b005b34801561041257600080fd5b5061042d60048036038101906104289190613354565b611252565b005b61044960048036038101906104449190612d5f565b6112b4565b005b34801561045757600080fd5b506104606114ec565b60405161046d9190613027565b60405180910390f35b34801561048257600080fd5b5061049d60048036038101906104989190612d5f565b6117d8565b6040516104aa9190612d07565b60405180910390f35b3480156104bf57600080fd5b506104da60048036038101906104d591906133d7565b6118ea565b6040516104e79190612c5c565b60405180910390f35b60007f80ac58cd000000000000000000000000000000000000000000000000000000007bffffffffffffffffffffffffffffffffffffffffffffffffffffffff1916827bffffffffffffffffffffffffffffffffffffffffffffffffffffffff191614806105bb57507f5b5e139f000000000000000000000000000000000000000000000000000000007bffffffffffffffffffffffffffffffffffffffffffffffffffffffff1916827bffffffffffffffffffffffffffffffffffffffffffffffffffffffff1916145b806105cb57506105ca8261197e565b5b9050919050565b6060600080546105e190613446565b80601f016020809104026020016040519081016040528092919081815260200182805461060d90613446565b801561065a5780601f1061062f5761010080835404028352916020019161065a565b820191906000526020600020905b81548152906001019060200180831161063d57829003601f168201915b5050505050905090565b600061066f826119e8565b6004600083815260200190815260200160002060009054906101000a900473ffffffffffffffffffffffffffffffffffffffff169050919050565b60006106b582610b34565b90508073ffffffffffffffffffffffffffffffffffffffff168373ffffffffffffffffffffffffffffffffffffffff1603610725576040517f08c379a000000000000000000000000000000000000000000000000000000000815260040161071c906134e9565b60405180910390fd5b8073ffffffffffffffffffffffffffffffffffffffff16610744611a33565b73ffffffffffffffffffffffffffffffffffffffff16148061077357506107728161076d611a33565b6118ea565b5b6107b2576040517f08c379a00000000000000000000000000000000000000000000000000000000081526004016107a99061357b565b60405180910390fd5b6107bc8383611a3b565b505050565b6000600954905090565b6107dc6107d6611a33565b82611af4565b61081b576040517f08c379a00000000000000000000000000000000000000000000000000000000081526004016108129061360d565b60405180910390fd5b610826838383611b89565b505050565b61084683838360405180602001604052806000815250611252565b505050565b606060006108596007611e82565b905060008060005b83811015610901573373ffffffffffffffffffffffffffffffffffffffff16600b6000600184610891919061365c565b815260200190815260200160002060010160009054906101000a900473ffffffffffffffffffffffffffffffffffffffff1673ffffffffffffffffffffffffffffffffffffffff16036108ee576001836108eb919061365c565b92505b80806108f990613690565b915050610861565b5060008267ffffffffffffffff81111561091e5761091d613080565b5b60405190808252806020026020018201604052801561095757816020015b610944612b4b565b81526020019060019003908161093c5790505b50905060005b84811015610b2c573373ffffffffffffffffffffffffffffffffffffffff16600b600060018461098d919061365c565b815260200190815260200160002060010160009054906101000a900473ffffffffffffffffffffffffffffffffffffffff1673ffffffffffffffffffffffffffffffffffffffff1603610b195760006001826109e9919061365c565b90506000600b60008381526020019081526020016000209050806040518060a0016040529081600082015481526020016001820160009054906101000a900473ffffffffffffffffffffffffffffffffffffffff1673ffffffffffffffffffffffffffffffffffffffff1673ffffffffffffffffffffffffffffffffffffffff1681526020016002820160009054906101000a900473ffffffffffffffffffffffffffffffffffffffff1673ffffffffffffffffffffffffffffffffffffffff1673ffffffffffffffffffffffffffffffffffffffff168152602001600382015481526020016004820160009054906101000a900460ff161515151581525050848681518110610afc57610afb6136d8565b5b6020026020010181905250600185610b14919061365c565b945050505b8080610b2490613690565b91505061095d565b505050505090565b600080610b4083611e90565b9050600073ffffffffffffffffffffffffffffffffffffffff168173ffffffffffffffffffffffffffffffffffffffff1603610bb1576040517f08c379a0000000000000000000000000000000000000000000000000000000008152600401610ba890613753565b60405180910390fd5b80915050919050565b60008073ffffffffffffffffffffffffffffffffffffffff168273ffffffffffffffffffffffffffffffffffffffff1603610c2a576040517f08c379a0000000000000000000000000000000000000000000000000000000008152600401610c21906137e5565b60405180910390fd5b600360008373ffffffffffffffffffffffffffffffffffffffff1673ffffffffffffffffffffffffffffffffffffffff168152602001908152602001600020549050919050565b6000610c7d6007611ecd565b6000610c896007611e82565b9050610c953382611ee3565b610c9f8185612100565b610ca9818461216d565b8091505092915050565b3373ffffffffffffffffffffffffffffffffffffffff16600b600084815260200190815260200160002060020160009054906101000a900473ffffffffffffffffffffffffffffffffffffffff1673ffffffffffffffffffffffffffffffffffffffff1614610d57576040517f08c379a0000000000000000000000000000000000000000000000000000000008152600401610d4e90613877565b60405180910390fd5b6009543414610d9b576040517f08c379a0000000000000000000000000000000000000000000000000000000008152600401610d9290613909565b60405180910390fd5b6000600b600084815260200190815260200160002060040160006101000a81548160ff02191690831515021790555080600b60008481526020019081526020016000206003018190555033600b600084815260200190815260200160002060010160006101000a81548173ffffffffffffffffffffffffffffffffffffffff021916908373ffffffffffffffffffffffffffffffffffffffff16021790555030600b600084815260200190815260200160002060020160006101000a81548173ffffffffffffffffffffffffffffffffffffffff021916908373ffffffffffffffffffffffffffffffffffffffff160217905550610e996008612370565b610ea4333084611b89565b5050565b60606000610eb66007611e82565b90506000610ec46008611e82565b610ece6007611e82565b610ed89190613929565b90506000808267ffffffffffffffff811115610ef757610ef6613080565b5b604051908082528060200260200182016040528015610f3057816020015b610f1d612b4b565b815260200190600190039081610f155790505b50905060005b84811015611105573073ffffffffffffffffffffffffffffffffffffffff16600b6000600184610f66919061365c565b815260200190815260200160002060020160009054906101000a900473ffffffffffffffffffffffffffffffffffffffff1673ffffffffffffffffffffffffffffffffffffffff16036110f2576000600182610fc2919061365c565b90506000600b60008381526020019081526020016000209050806040518060a0016040529081600082015481526020016001820160009054906101000a900473ffffffffffffffffffffffffffffffffffffffff1673ffffffffffffffffffffffffffffffffffffffff1673ffffffffffffffffffffffffffffffffffffffff1681526020016002820160009054906101000a900473ffffffffffffffffffffffffffffffffffffffff1673ffffffffffffffffffffffffffffffffffffffff1673ffffffffffffffffffffffffffffffffffffffff168152602001600382015481526020016004820160009054906101000a900460ff1615151515815250508486815181106110d5576110d46136d8565b5b60200260200101819052506001856110ed919061365c565b945050505b80806110fd90613690565b915050610f36565b508094505050505090565b60606001805461111f90613446565b80601f016020809104026020016040519081016040528092919081815260200182805461114b90613446565b80156111985780601f1061116d57610100808354040283529160200191611198565b820191906000526020600020905b81548152906001019060200180831161117b57829003601f168201915b5050505050905090565b6111b46111ad611a33565b83836123cc565b5050565b600a60009054906101000a900473ffffffffffffffffffffffffffffffffffffffff1673ffffffffffffffffffffffffffffffffffffffff163373ffffffffffffffffffffffffffffffffffffffff1614611248576040517f08c379a000000000000000000000000000000000000000000000000000000000815260040161123f906139cf565b60405180910390fd5b8060098190555050565b61126361125d611a33565b83611af4565b6112a2576040517f08c379a00000000000000000000000000000000000000000000000000000000081526004016112999061360d565b60405180910390fd5b6112ae84848484612538565b50505050565b6000600b6000838152602001908152602001600020600301549050803414611311576040517f08c379a000000000000000000000000000000000000000000000000000000000815260040161130890613a61565b60405180910390fd5b33600b600084815260200190815260200160002060020160006101000a81548173ffffffffffffffffffffffffffffffffffffffff021916908373ffffffffffffffffffffffffffffffffffffffff1602179055506001600b600084815260200190815260200160002060040160006101000a81548160ff0219169083151502179055506000600b600084815260200190815260200160002060020160006101000a81548173ffffffffffffffffffffffffffffffffffffffff021916908373ffffffffffffffffffffffffffffffffffffffff1602179055506113f56008611ecd565b611400303384611b89565b600a60009054906101000a900473ffffffffffffffffffffffffffffffffffffffff1673ffffffffffffffffffffffffffffffffffffffff166108fc6009549081150290604051600060405180830381858888f1935050505015801561146a573d6000803e3d6000fd5b50600b600083815260200190815260200160002060010160009054906101000a900473ffffffffffffffffffffffffffffffffffffffff1673ffffffffffffffffffffffffffffffffffffffff166108fc349081150290604051600060405180830381858888f193505050501580156114e7573d6000803e3d6000fd5b505050565b606060006114fa6007611e82565b905060008060005b838110156115a2573373ffffffffffffffffffffffffffffffffffffffff16600b6000600184611532919061365c565b815260200190815260200160002060020160009054906101000a900473ffffffffffffffffffffffffffffffffffffffff1673ffffffffffffffffffffffffffffffffffffffff160361158f5760018361158c919061365c565b92505b808061159a90613690565b915050611502565b5060008267ffffffffffffffff8111156115bf576115be613080565b5b6040519080825280602002602001820160405280156115f857816020015b6115e5612b4b565b8152602001906001900390816115dd5790505b50905060005b848110156117cd573373ffffffffffffffffffffffffffffffffffffffff16600b600060018461162e919061365c565b815260200190815260200160002060020160009054906101000a900473ffffffffffffffffffffffffffffffffffffffff1673ffffffffffffffffffffffffffffffffffffffff16036117ba57600060018261168a919061365c565b90506000600b60008381526020019081526020016000209050806040518060a0016040529081600082015481526020016001820160009054906101000a900473ffffffffffffffffffffffffffffffffffffffff1673ffffffffffffffffffffffffffffffffffffffff1673ffffffffffffffffffffffffffffffffffffffff1681526020016002820160009054906101000a900473ffffffffffffffffffffffffffffffffffffffff1673ffffffffffffffffffffffffffffffffffffffff1673ffffffffffffffffffffffffffffffffffffffff168152602001600382015481526020016004820160009054906101000a900460ff16151515158152505084868151811061179d5761179c6136d8565b5b60200260200101819052506001856117b5919061365c565b945050505b80806117c590613690565b9150506115fe565b508094505050505090565b60606117e3826119e8565b600060066000848152602001908152602001600020805461180390613446565b80601f016020809104026020016040519081016040528092919081815260200182805461182f90613446565b801561187c5780601f106118515761010080835404028352916020019161187c565b820191906000526020600020905b81548152906001019060200180831161185f57829003601f168201915b50505050509050600061188d612594565b905060008151036118a25781925050506118e5565b6000825111156118d75780826040516020016118bf929190613abd565b604051602081830303815290604052925050506118e5565b6118e0846125ab565b925050505b919050565b6000600560008473ffffffffffffffffffffffffffffffffffffffff1673ffffffffffffffffffffffffffffffffffffffff16815260200190815260200160002060008373ffffffffffffffffffffffffffffffffffffffff1673ffffffffffffffffffffffffffffffffffffffff16815260200190815260200160002060009054906101000a900460ff16905092915050565b60007f01ffc9a7000000000000000000000000000000000000000000000000000000007bffffffffffffffffffffffffffffffffffffffffffffffffffffffff1916827bffffffffffffffffffffffffffffffffffffffffffffffffffffffff1916149050919050565b6119f181612613565b611a30576040517f08c379a0000000000000000000000000000000000000000000000000000000008152600401611a2790613753565b60405180910390fd5b50565b600033905090565b816004600083815260200190815260200160002060006101000a81548173ffffffffffffffffffffffffffffffffffffffff021916908373ffffffffffffffffffffffffffffffffffffffff160217905550808273ffffffffffffffffffffffffffffffffffffffff16611aae83610b34565b73ffffffffffffffffffffffffffffffffffffffff167f8c5be1e5ebec7d5bd14f71427d1e84f3dd0314c0f7b2291e5b200ac8c7c3b92560405160405180910390a45050565b600080611b0083610b34565b90508073ffffffffffffffffffffffffffffffffffffffff168473ffffffffffffffffffffffffffffffffffffffff161480611b425750611b4181856118ea565b5b80611b8057508373ffffffffffffffffffffffffffffffffffffffff16611b6884610664565b73ffffffffffffffffffffffffffffffffffffffff16145b91505092915050565b8273ffffffffffffffffffffffffffffffffffffffff16611ba982610b34565b73ffffffffffffffffffffffffffffffffffffffff1614611bff576040517f08c379a0000000000000000000000000000000000000000000000000000000008152600401611bf690613b53565b60405180910390fd5b600073ffffffffffffffffffffffffffffffffffffffff168273ffffffffffffffffffffffffffffffffffffffff1603611c6e576040517f08c379a0000000000000000000000000000000000000000000000000000000008152600401611c6590613be5565b60405180910390fd5b611c7b8383836001612654565b8273ffffffffffffffffffffffffffffffffffffffff16611c9b82610b34565b73ffffffffffffffffffffffffffffffffffffffff1614611cf1576040517f08c379a0000000000000000000000000000000000000000000000000000000008152600401611ce890613b53565b60405180910390fd5b6004600082815260200190815260200160002060006101000a81549073ffffffffffffffffffffffffffffffffffffffff02191690556001600360008573ffffffffffffffffffffffffffffffffffffffff1673ffffffffffffffffffffffffffffffffffffffff168152602001908152602001600020600082825403925050819055506001600360008473ffffffffffffffffffffffffffffffffffffffff1673ffffffffffffffffffffffffffffffffffffffff16815260200190815260200160002060008282540192505081905550816002600083815260200190815260200160002060006101000a81548173ffffffffffffffffffffffffffffffffffffffff021916908373ffffffffffffffffffffffffffffffffffffffff160217905550808273ffffffffffffffffffffffffffffffffffffffff168473ffffffffffffffffffffffffffffffffffffffff167fddf252ad1be2c89b69c2b068fc378daa952ba7f163c4a11628f55a4df523b3ef60405160405180910390a4611e7d838383600161277a565b505050565b600081600001549050919050565b60006002600083815260200190815260200160002060009054906101000a900473ffffffffffffffffffffffffffffffffffffffff169050919050565b6001816000016000828254019250508190555050565b600073ffffffffffffffffffffffffffffffffffffffff168273ffffffffffffffffffffffffffffffffffffffff1603611f52576040517f08c379a0000000000000000000000000000000000000000000000000000000008152600401611f4990613c51565b60405180910390fd5b611f5b81612613565b15611f9b576040517f08c379a0000000000000000000000000000000000000000000000000000000008152600401611f9290613cbd565b60405180910390fd5b611fa9600083836001612654565b611fb281612613565b15611ff2576040517f08c379a0000000000000000000000000000000000000000000000000000000008152600401611fe990613cbd565b60405180910390fd5b6001600360008473ffffffffffffffffffffffffffffffffffffffff1673ffffffffffffffffffffffffffffffffffffffff16815260200190815260200160002060008282540192505081905550816002600083815260200190815260200160002060006101000a81548173ffffffffffffffffffffffffffffffffffffffff021916908373ffffffffffffffffffffffffffffffffffffffff160217905550808273ffffffffffffffffffffffffffffffffffffffff16600073ffffffffffffffffffffffffffffffffffffffff167fddf252ad1be2c89b69c2b068fc378daa952ba7f163c4a11628f55a4df523b3ef60405160405180910390a46120fc60008383600161277a565b5050565b61210982612613565b612148576040517f08c379a000000000000000000000000000000000000000000000000000000000815260040161213f90613d4f565b60405180910390fd5b806006600084815260200190815260200160002090816121689190613f1b565b505050565b600081116121b0576040517f08c379a00000000000000000000000000000000000000000000000000000000081526004016121a790614039565b60405180910390fd5b60095434146121f4576040517f08c379a00000000000000000000000000000000000000000000000000000000081526004016121eb906140cb565b60405180910390fd5b6040518060a001604052808381526020013373ffffffffffffffffffffffffffffffffffffffff1681526020013073ffffffffffffffffffffffffffffffffffffffff16815260200182815260200160001515815250600b60008481526020019081526020016000206000820151816000015560208201518160010160006101000a81548173ffffffffffffffffffffffffffffffffffffffff021916908373ffffffffffffffffffffffffffffffffffffffff16021790555060408201518160020160006101000a81548173ffffffffffffffffffffffffffffffffffffffff021916908373ffffffffffffffffffffffffffffffffffffffff1602179055506060820151816003015560808201518160040160006101000a81548160ff02191690831515021790555090505061232d333084611b89565b817fdebdb32cb5230ab727c9c361b16fdb2015df225c10e6a3e7f60ecd5dc5be4516333084600060405161236494939291906140eb565b60405180910390a25050565b600081600001549050600081116123bc576040517f08c379a00000000000000000000000000000000000000000000000000000000081526004016123b39061417c565b60405180910390fd5b6001810382600001819055505050565b8173ffffffffffffffffffffffffffffffffffffffff168373ffffffffffffffffffffffffffffffffffffffff160361243a576040517f08c379a0000000000000000000000000000000000000000000000000000000008152600401612431906141e8565b60405180910390fd5b80600560008573ffffffffffffffffffffffffffffffffffffffff1673ffffffffffffffffffffffffffffffffffffffff16815260200190815260200160002060008473ffffffffffffffffffffffffffffffffffffffff1673ffffffffffffffffffffffffffffffffffffffff16815260200190815260200160002060006101000a81548160ff0219169083151502179055508173ffffffffffffffffffffffffffffffffffffffff168373ffffffffffffffffffffffffffffffffffffffff167f17307eab39ab6107e8899845ad3d59bd9653f200f220920489ca2b5937696c318360405161252b9190612c5c565b60405180910390a3505050565b612543848484611b89565b61254f84848484612780565b61258e576040517f08c379a00000000000000000000000000000000000000000000000000000000081526004016125859061427a565b60405180910390fd5b50505050565b606060405180602001604052806000815250905090565b60606125b6826119e8565b60006125c0612594565b905060008151116125e0576040518060200160405280600081525061260b565b806125ea84612907565b6040516020016125fb929190613abd565b6040516020818303038152906040525b915050919050565b60008073ffffffffffffffffffffffffffffffffffffffff1661263583611e90565b73ffffffffffffffffffffffffffffffffffffffff1614159050919050565b600181111561277457600073ffffffffffffffffffffffffffffffffffffffff168473ffffffffffffffffffffffffffffffffffffffff16146126e85780600360008673ffffffffffffffffffffffffffffffffffffffff1673ffffffffffffffffffffffffffffffffffffffff16815260200190815260200160002060008282546126e09190613929565b925050819055505b600073ffffffffffffffffffffffffffffffffffffffff168373ffffffffffffffffffffffffffffffffffffffff16146127735780600360008573ffffffffffffffffffffffffffffffffffffffff1673ffffffffffffffffffffffffffffffffffffffff168152602001908152602001600020600082825461276b919061365c565b925050819055505b5b50505050565b50505050565b60006127a18473ffffffffffffffffffffffffffffffffffffffff166129d5565b156128fa578373ffffffffffffffffffffffffffffffffffffffff1663150b7a026127ca611a33565b8786866040518563ffffffff1660e01b81526004016127ec94939291906142ef565b6020604051808303816000875af192505050801561282857506040513d601f19601f820116820180604052508101906128259190614350565b60015b6128aa573d8060008114612858576040519150601f19603f3d011682016040523d82523d6000602084013e61285d565b606091505b5060008151036128a2576040517f08c379a00000000000000000000000000000000000000000000000000000000081526004016128999061427a565b60405180910390fd5b805181602001fd5b63150b7a0260e01b7bffffffffffffffffffffffffffffffffffffffffffffffffffffffff1916817bffffffffffffffffffffffffffffffffffffffffffffffffffffffff1916149150506128ff565b600190505b949350505050565b606060006001612916846129f8565b01905060008167ffffffffffffffff81111561293557612934613080565b5b6040519080825280601f01601f1916602001820160405280156129675781602001600182028036833780820191505090505b509050600082602001820190505b6001156129ca578080600190039150507f3031323334353637383961626364656600000000000000000000000000000000600a86061a8153600a85816129be576129bd61437d565b5b04945060008503612975575b819350505050919050565b6000808273ffffffffffffffffffffffffffffffffffffffff163b119050919050565b600080600090507a184f03e93ff9f4daa797ed6e38ed64bf6a1f0100000000000000008310612a56577a184f03e93ff9f4daa797ed6e38ed64bf6a1f0100000000000000008381612a4c57612a4b61437d565b5b0492506040810190505b6d04ee2d6d415b85acef81000000008310612a93576d04ee2d6d415b85acef81000000008381612a8957612a8861437d565b5b0492506020810190505b662386f26fc100008310612ac257662386f26fc100008381612ab857612ab761437d565b5b0492506010810190505b6305f5e1008310612aeb576305f5e1008381612ae157612ae061437d565b5b0492506008810190505b6127108310612b10576127108381612b0657612b0561437d565b5b0492506004810190505b60648310612b335760648381612b2957612b2861437d565b5b0492506002810190505b600a8310612b42576001810190505b80915050919050565b6040518060a0016040528060008152602001600073ffffffffffffffffffffffffffffffffffffffff168152602001600073ffffffffffffffffffffffffffffffffffffffff168152602001600081526020016000151581525090565b6000604051905090565b600080fd5b600080fd5b60007fffffffff0000000000000000000000000000000000000000000000000000000082169050919050565b612bf181612bbc565b8114612bfc57600080fd5b50565b600081359050612c0e81612be8565b92915050565b600060208284031215612c2a57612c29612bb2565b5b6000612c3884828501612bff565b91505092915050565b60008115159050919050565b612c5681612c41565b82525050565b6000602082019050612c716000830184612c4d565b92915050565b600081519050919050565b600082825260208201905092915050565b60005b83811015612cb1578082015181840152602081019050612c96565b60008484015250505050565b6000601f19601f8301169050919050565b6000612cd982612c77565b612ce38185612c82565b9350612cf3818560208601612c93565b612cfc81612cbd565b840191505092915050565b60006020820190508181036000830152612d218184612cce565b905092915050565b6000819050919050565b612d3c81612d29565b8114612d4757600080fd5b50565b600081359050612d5981612d33565b92915050565b600060208284031215612d7557612d74612bb2565b5b6000612d8384828501612d4a565b91505092915050565b600073ffffffffffffffffffffffffffffffffffffffff82169050919050565b6000612db782612d8c565b9050919050565b612dc781612dac565b82525050565b6000602082019050612de26000830184612dbe565b92915050565b612df181612dac565b8114612dfc57600080fd5b50565b600081359050612e0e81612de8565b92915050565b60008060408385031215612e2b57612e2a612bb2565b5b6000612e3985828601612dff565b9250506020612e4a85828601612d4a565b9150509250929050565b612e5d81612d29565b82525050565b6000602082019050612e786000830184612e54565b92915050565b600080600060608486031215612e9757612e96612bb2565b5b6000612ea586828701612dff565b9350506020612eb686828701612dff565b9250506040612ec786828701612d4a565b9150509250925092565b600081519050919050565b600082825260208201905092915050565b6000819050602082019050919050565b612f0681612d29565b82525050565b6000612f1782612d8c565b9050919050565b612f2781612f0c565b82525050565b612f3681612c41565b82525050565b60a082016000820151612f526000850182612efd565b506020820151612f656020850182612f1e565b506040820151612f786040850182612f1e565b506060820151612f8b6060850182612efd565b506080820151612f9e6080850182612f2d565b50505050565b6000612fb08383612f3c565b60a08301905092915050565b6000602082019050919050565b6000612fd482612ed1565b612fde8185612edc565b9350612fe983612eed565b8060005b8381101561301a5781516130018882612fa4565b975061300c83612fbc565b925050600181019050612fed565b5085935050505092915050565b600060208201905081810360008301526130418184612fc9565b905092915050565b60006020828403121561305f5761305e612bb2565b5b600061306d84828501612dff565b91505092915050565b600080fd5b600080fd5b7f4e487b7100000000000000000000000000000000000000000000000000000000600052604160045260246000fd5b6130b882612cbd565b810181811067ffffffffffffffff821117156130d7576130d6613080565b5b80604052505050565b60006130ea612ba8565b90506130f682826130af565b919050565b600067ffffffffffffffff82111561311657613115613080565b5b61311f82612cbd565b9050602081019050919050565b82818337600083830152505050565b600061314e613149846130fb565b6130e0565b90508281526020810184848401111561316a5761316961307b565b5b61317584828561312c565b509392505050565b600082601f83011261319257613191613076565b5b81356131a284826020860161313b565b91505092915050565b600080604083850312156131c2576131c1612bb2565b5b600083013567ffffffffffffffff8111156131e0576131df612bb7565b5b6131ec8582860161317d565b92505060206131fd85828601612d4a565b9150509250929050565b6000806040838503121561321e5761321d612bb2565b5b600061322c85828601612d4a565b925050602061323d85828601612d4a565b9150509250929050565b61325081612c41565b811461325b57600080fd5b50565b60008135905061326d81613247565b92915050565b6000806040838503121561328a57613289612bb2565b5b600061329885828601612dff565b92505060206132a98582860161325e565b9150509250929050565b600067ffffffffffffffff8211156132ce576132cd613080565b5b6132d782612cbd565b9050602081019050919050565b60006132f76132f2846132b3565b6130e0565b9050828152602081018484840111156133135761331261307b565b5b61331e84828561312c565b509392505050565b600082601f83011261333b5761333a613076565b5b813561334b8482602086016132e4565b91505092915050565b6000806000806080858703121561336e5761336d612bb2565b5b600061337c87828801612dff565b945050602061338d87828801612dff565b935050604061339e87828801612d4a565b925050606085013567ffffffffffffffff8111156133bf576133be612bb7565b5b6133cb87828801613326565b91505092959194509250565b600080604083850312156133ee576133ed612bb2565b5b60006133fc85828601612dff565b925050602061340d85828601612dff565b9150509250929050565b7f4e487b7100000000000000000000000000000000000000000000000000000000600052602260045260246000fd5b6000600282049050600182168061345e57607f821691505b60208210810361347157613470613417565b5b50919050565b7f4552433732313a20617070726f76616c20746f2063757272656e74206f776e6560008201527f7200000000000000000000000000000000000000000000000000000000000000602082015250565b60006134d3602183612c82565b91506134de82613477565b604082019050919050565b60006020820190508181036000830152613502816134c6565b9050919050565b7f4552433732313a20617070726f76652063616c6c6572206973206e6f7420746f60008201527f6b656e206f776e6572206f7220617070726f76656420666f7220616c6c000000602082015250565b6000613565603d83612c82565b915061357082613509565b604082019050919050565b6000602082019050818103600083015261359481613558565b9050919050565b7f4552433732313a2063616c6c6572206973206e6f7420746f6b656e206f776e6560008201527f72206f7220617070726f76656400000000000000000000000000000000000000602082015250565b60006135f7602d83612c82565b91506136028261359b565b604082019050919050565b60006020820190508181036000830152613626816135ea565b9050919050565b7f4e487b7100000000000000000000000000000000000000000000000000000000600052601160045260246000fd5b600061366782612d29565b915061367283612d29565b925082820190508082111561368a5761368961362d565b5b92915050565b600061369b82612d29565b91507fffffffffffffffffffffffffffffffffffffffffffffffffffffffffffffffff82036136cd576136cc61362d565b5b600182019050919050565b7f4e487b7100000000000000000000000000000000000000000000000000000000600052603260045260246000fd5b7f4552433732313a20696e76616c696420746f6b656e2049440000000000000000600082015250565b600061373d601883612c82565b915061374882613707565b602082019050919050565b6000602082019050818103600083015261376c81613730565b9050919050565b7f4552433732313a2061646472657373207a65726f206973206e6f74206120766160008201527f6c6964206f776e65720000000000000000000000000000000000000000000000602082015250565b60006137cf602983612c82565b91506137da82613773565b604082019050919050565b600060208201905081810360008301526137fe816137c2565b9050919050565b7f4f6e6c79206974656d206f776e65722063616e20706172666f726d207468697360008201527f206f7065726174696f6e00000000000000000000000000000000000000000000602082015250565b6000613861602a83612c82565b915061386c82613805565b604082019050919050565b6000602082019050818103600083015261389081613854565b9050919050565b7f5072696365206d75737420626520657175616c20746f206c697374696e67207060008201527f7269636500000000000000000000000000000000000000000000000000000000602082015250565b60006138f3602483612c82565b91506138fe82613897565b604082019050919050565b60006020820190508181036000830152613922816138e6565b9050919050565b600061393482612d29565b915061393f83612d29565b92508282039050818111156139575761395661362d565b5b92915050565b7f6f6e6c79206f776e6572206f6620746865206d61726b6574706c61636520636160008201527f6e206368616e676520746865206c697374696e67207072696365000000000000602082015250565b60006139b9603a83612c82565b91506139c48261395d565b604082019050919050565b600060208201905081810360008301526139e8816139ac565b9050919050565b7f506c65617365207375626d69742074652061736b696e6720707269636520696e60008201527f206f7264657220746f20636f6d706c6574652074686520706172636573000000602082015250565b6000613a4b603d83612c82565b9150613a56826139ef565b604082019050919050565b60006020820190508181036000830152613a7a81613a3e565b9050919050565b600081905092915050565b6000613a9782612c77565b613aa18185613a81565b9350613ab1818560208601612c93565b80840191505092915050565b6000613ac98285613a8c565b9150613ad58284613a8c565b91508190509392505050565b7f4552433732313a207472616e736665722066726f6d20696e636f72726563742060008201527f6f776e6572000000000000000000000000000000000000000000000000000000602082015250565b6000613b3d602583612c82565b9150613b4882613ae1565b604082019050919050565b60006020820190508181036000830152613b6c81613b30565b9050919050565b7f4552433732313a207472616e7366657220746f20746865207a65726f2061646460008201527f7265737300000000000000000000000000000000000000000000000000000000602082015250565b6000613bcf602483612c82565b9150613bda82613b73565b604082019050919050565b60006020820190508181036000830152613bfe81613bc2565b9050919050565b7f4552433732313a206d696e7420746f20746865207a65726f2061646472657373600082015250565b6000613c3b602083612c82565b9150613c4682613c05565b602082019050919050565b60006020820190508181036000830152613c6a81613c2e565b9050919050565b7f4552433732313a20746f6b656e20616c7265616479206d696e74656400000000600082015250565b6000613ca7601c83612c82565b9150613cb282613c71565b602082019050919050565b60006020820190508181036000830152613cd681613c9a565b9050919050565b7f45524337323155524953746f726167653a2055524920736574206f66206e6f6e60008201527f6578697374656e7420746f6b656e000000000000000000000000000000000000602082015250565b6000613d39602e83612c82565b9150613d4482613cdd565b604082019050919050565b60006020820190508181036000830152613d6881613d2c565b9050919050565b60008190508160005260206000209050919050565b60006020601f8301049050919050565b600082821b905092915050565b600060088302613dd17fffffffffffffffffffffffffffffffffffffffffffffffffffffffffffffffff82613d94565b613ddb8683613d94565b95508019841693508086168417925050509392505050565b6000819050919050565b6000613e18613e13613e0e84612d29565b613df3565b612d29565b9050919050565b6000819050919050565b613e3283613dfd565b613e46613e3e82613e1f565b848454613da1565b825550505050565b600090565b613e5b613e4e565b613e66818484613e29565b505050565b5b81811015613e8a57613e7f600082613e53565b600181019050613e6c565b5050565b601f821115613ecf57613ea081613d6f565b613ea984613d84565b81016020851015613eb8578190505b613ecc613ec485613d84565b830182613e6b565b50505b505050565b600082821c905092915050565b6000613ef260001984600802613ed4565b1980831691505092915050565b6000613f0b8383613ee1565b9150826002028217905092915050565b613f2482612c77565b67ffffffffffffffff811115613f3d57613f3c613080565b5b613f478254613446565b613f52828285613e8e565b600060209050601f831160018114613f855760008415613f73578287015190505b613f7d8582613eff565b865550613fe5565b601f198416613f9386613d6f565b60005b82811015613fbb57848901518255600182019150602085019450602081019050613f96565b86831015613fd85784890151613fd4601f891682613ee1565b8355505b6001600288020188555050505b505050505050565b7f7072696365206d75737420626520616c206c6573742031000000000000000000600082015250565b6000614023601783612c82565b915061402e82613fed565b602082019050919050565b6000602082019050818103600083015261405281614016565b9050919050565b7f7072696365206d75737420626520657175616c20746f206c697374696e67207060008201527f7269636500000000000000000000000000000000000000000000000000000000602082015250565b60006140b5602483612c82565b91506140c082614059565b604082019050919050565b600060208201905081810360008301526140e4816140a8565b9050919050565b60006080820190506141006000830187612dbe565b61410d6020830186612dbe565b61411a6040830185612e54565b6141276060830184612c4d565b95945050505050565b7f436f756e7465723a2064656372656d656e74206f766572666c6f770000000000600082015250565b6000614166601b83612c82565b915061417182614130565b602082019050919050565b6000602082019050818103600083015261419581614159565b9050919050565b7f4552433732313a20617070726f766520746f2063616c6c657200000000000000600082015250565b60006141d2601983612c82565b91506141dd8261419c565b602082019050919050565b60006020820190508181036000830152614201816141c5565b9050919050565b7f4552433732313a207472616e7366657220746f206e6f6e20455243373231526560008201527f63656976657220696d706c656d656e7465720000000000000000000000000000602082015250565b6000614264603283612c82565b915061426f82614208565b604082019050919050565b6000602082019050818103600083015261429381614257565b9050919050565b600081519050919050565b600082825260208201905092915050565b60006142c18261429a565b6142cb81856142a5565b93506142db818560208601612c93565b6142e481612cbd565b840191505092915050565b60006080820190506143046000830187612dbe565b6143116020830186612dbe565b61431e6040830185612e54565b818103606083015261433081846142b6565b905095945050505050565b60008151905061434a81612be8565b92915050565b60006020828403121561436657614365612bb2565b5b60006143748482850161433b565b91505092915050565b7f4e487b7100000000000000000000000000000000000000000000000000000000600052601260045260246000fdfea2646970667358221220c45083ac083f2bcd528603134858356bb9695b760c695eafdd8161efa011707a64736f6c63430008110033",
  "linkReferences": {},
  "deployedLinkReferences": {}
}